{
  "_format": "hh-sol-artifact-1",
  "contractName": "EnergyTrading",
  "sourceName": "contracts/EnergyTrading.sol",
  "abi": [
    {
      "inputs": [],
      "stateMutability": "nonpayable",
      "type": "constructor"
    },
    {
      "inputs": [
        {
          "internalType": "address",
          "name": "sender",
          "type": "address"
        },
        {
          "internalType": "uint256",
          "name": "tokenId",
          "type": "uint256"
        },
        {
          "internalType": "address",
          "name": "owner",
          "type": "address"
        }
      ],
      "name": "ERC721IncorrectOwner",
      "type": "error"
    },
    {
      "inputs": [
        {
          "internalType": "address",
          "name": "operator",
          "type": "address"
        },
        {
          "internalType": "uint256",
          "name": "tokenId",
          "type": "uint256"
        }
      ],
      "name": "ERC721InsufficientApproval",
      "type": "error"
    },
    {
      "inputs": [
        {
          "internalType": "address",
          "name": "approver",
          "type": "address"
        }
      ],
      "name": "ERC721InvalidApprover",
      "type": "error"
    },
    {
      "inputs": [
        {
          "internalType": "address",
          "name": "operator",
          "type": "address"
        }
      ],
      "name": "ERC721InvalidOperator",
      "type": "error"
    },
    {
      "inputs": [
        {
          "internalType": "address",
          "name": "owner",
          "type": "address"
        }
      ],
      "name": "ERC721InvalidOwner",
      "type": "error"
    },
    {
      "inputs": [
        {
          "internalType": "address",
          "name": "receiver",
          "type": "address"
        }
      ],
      "name": "ERC721InvalidReceiver",
      "type": "error"
    },
    {
      "inputs": [
        {
          "internalType": "address",
          "name": "sender",
          "type": "address"
        }
      ],
      "name": "ERC721InvalidSender",
      "type": "error"
    },
    {
      "inputs": [
        {
          "internalType": "uint256",
          "name": "tokenId",
          "type": "uint256"
        }
      ],
      "name": "ERC721NonexistentToken",
      "type": "error"
    },
    {
      "anonymous": false,
      "inputs": [
        {
          "indexed": true,
          "internalType": "address",
          "name": "owner",
          "type": "address"
        },
        {
          "indexed": true,
          "internalType": "address",
          "name": "approved",
          "type": "address"
        },
        {
          "indexed": true,
          "internalType": "uint256",
          "name": "tokenId",
          "type": "uint256"
        }
      ],
      "name": "Approval",
      "type": "event"
    },
    {
      "anonymous": false,
      "inputs": [
        {
          "indexed": true,
          "internalType": "address",
          "name": "owner",
          "type": "address"
        },
        {
          "indexed": true,
          "internalType": "address",
          "name": "operator",
          "type": "address"
        },
        {
          "indexed": false,
          "internalType": "bool",
          "name": "approved",
          "type": "bool"
        }
      ],
      "name": "ApprovalForAll",
      "type": "event"
    },
    {
      "anonymous": false,
      "inputs": [
        {
          "indexed": false,
          "internalType": "uint256",
          "name": "_fromTokenId",
          "type": "uint256"
        },
        {
          "indexed": false,
          "internalType": "uint256",
          "name": "_toTokenId",
          "type": "uint256"
        }
      ],
      "name": "BatchMetadataUpdate",
      "type": "event"
    },
    {
      "anonymous": false,
      "inputs": [
        {
          "indexed": false,
          "internalType": "uint256",
          "name": "_tokenId",
          "type": "uint256"
        }
      ],
      "name": "MetadataUpdate",
      "type": "event"
    },
    {
      "anonymous": false,
      "inputs": [
        {
          "indexed": true,
          "internalType": "address",
          "name": "from",
          "type": "address"
        },
        {
          "indexed": true,
          "internalType": "address",
          "name": "to",
          "type": "address"
        },
        {
          "indexed": true,
          "internalType": "uint256",
          "name": "tokenId",
          "type": "uint256"
        }
      ],
      "name": "Transfer",
      "type": "event"
    },
    {
      "inputs": [],
      "name": "TotalBids",
      "outputs": [
        {
          "internalType": "uint256",
          "name": "",
          "type": "uint256"
        }
      ],
      "stateMutability": "view",
      "type": "function"
    },
    {
      "inputs": [
        {
          "internalType": "address",
          "name": "to",
          "type": "address"
        },
        {
          "internalType": "uint256",
          "name": "tokenId",
          "type": "uint256"
        }
      ],
      "name": "approve",
      "outputs": [],
      "stateMutability": "nonpayable",
      "type": "function"
    },
    {
      "inputs": [
        {
          "internalType": "address",
          "name": "owner",
          "type": "address"
        }
      ],
      "name": "balanceOf",
      "outputs": [
        {
          "internalType": "uint256",
          "name": "",
          "type": "uint256"
        }
      ],
      "stateMutability": "view",
      "type": "function"
    },
    {
      "inputs": [
        {
          "internalType": "uint256",
          "name": "tokenId",
          "type": "uint256"
        }
      ],
      "name": "getApproved",
      "outputs": [
        {
          "internalType": "address",
          "name": "",
          "type": "address"
        }
      ],
      "stateMutability": "view",
      "type": "function"
    },
    {
      "inputs": [
        {
          "internalType": "address",
          "name": "owner",
          "type": "address"
        },
        {
          "internalType": "address",
          "name": "operator",
          "type": "address"
        }
      ],
      "name": "isApprovedForAll",
      "outputs": [
        {
          "internalType": "bool",
          "name": "",
          "type": "bool"
        }
      ],
      "stateMutability": "view",
      "type": "function"
    },
    {
      "inputs": [
        {
          "internalType": "string",
          "name": "EnergyType",
          "type": "string"
        },
        {
          "internalType": "uint256",
          "name": "EnergyAmount",
          "type": "uint256"
        },
        {
          "internalType": "uint256",
          "name": "Price",
          "type": "uint256"
        }
      ],
      "name": "mint",
      "outputs": [
        {
          "internalType": "uint256",
          "name": "",
          "type": "uint256"
        }
      ],
      "stateMutability": "nonpayable",
      "type": "function"
    },
    {
      "inputs": [],
      "name": "name",
      "outputs": [
        {
          "internalType": "string",
          "name": "",
          "type": "string"
        }
      ],
      "stateMutability": "view",
      "type": "function"
    },
    {
      "inputs": [
        {
          "internalType": "uint256",
          "name": "tokenId",
          "type": "uint256"
        }
      ],
      "name": "ownerOf",
      "outputs": [
        {
          "internalType": "address",
          "name": "",
          "type": "address"
        }
      ],
      "stateMutability": "view",
      "type": "function"
    },
    {
      "inputs": [
        {
          "internalType": "address",
          "name": "from",
          "type": "address"
        },
        {
          "internalType": "address",
          "name": "to",
          "type": "address"
        },
        {
          "internalType": "uint256",
          "name": "tokenId",
          "type": "uint256"
        }
      ],
      "name": "safeTransferFrom",
      "outputs": [],
      "stateMutability": "nonpayable",
      "type": "function"
    },
    {
      "inputs": [
        {
          "internalType": "address",
          "name": "from",
          "type": "address"
        },
        {
          "internalType": "address",
          "name": "to",
          "type": "address"
        },
        {
          "internalType": "uint256",
          "name": "tokenId",
          "type": "uint256"
        },
        {
          "internalType": "bytes",
          "name": "data",
          "type": "bytes"
        }
      ],
      "name": "safeTransferFrom",
      "outputs": [],
      "stateMutability": "nonpayable",
      "type": "function"
    },
    {
      "inputs": [
        {
          "internalType": "address",
          "name": "operator",
          "type": "address"
        },
        {
          "internalType": "bool",
          "name": "approved",
          "type": "bool"
        }
      ],
      "name": "setApprovalForAll",
      "outputs": [],
      "stateMutability": "nonpayable",
      "type": "function"
    },
    {
      "inputs": [
        {
          "internalType": "bytes4",
          "name": "interfaceId",
          "type": "bytes4"
        }
      ],
      "name": "supportsInterface",
      "outputs": [
        {
          "internalType": "bool",
          "name": "",
          "type": "bool"
        }
      ],
      "stateMutability": "view",
      "type": "function"
    },
    {
      "inputs": [],
      "name": "symbol",
      "outputs": [
        {
          "internalType": "string",
          "name": "",
          "type": "string"
        }
      ],
      "stateMutability": "view",
      "type": "function"
    },
    {
      "inputs": [
        {
          "internalType": "uint256",
          "name": "tokenId",
          "type": "uint256"
        }
      ],
      "name": "tokenURI",
      "outputs": [
        {
          "internalType": "string",
          "name": "",
          "type": "string"
        }
      ],
      "stateMutability": "view",
      "type": "function"
    },
    {
      "inputs": [
        {
          "internalType": "uint256",
          "name": "",
          "type": "uint256"
        }
      ],
      "name": "trades",
      "outputs": [
        {
          "internalType": "address",
          "name": "seller",
          "type": "address"
        },
        {
          "internalType": "uint256",
          "name": "EnrgyAmount",
          "type": "uint256"
        },
        {
          "internalType": "string",
          "name": "EnrgyType",
          "type": "string"
        },
        {
          "internalType": "uint256",
          "name": "Price",
          "type": "uint256"
        }
      ],
      "stateMutability": "view",
      "type": "function"
    },
    {
      "inputs": [
        {
          "internalType": "address",
          "name": "from",
          "type": "address"
        },
        {
          "internalType": "address",
          "name": "to",
          "type": "address"
        },
        {
          "internalType": "uint256",
          "name": "tokenId",
          "type": "uint256"
        }
      ],
      "name": "transferFrom",
      "outputs": [],
      "stateMutability": "nonpayable",
      "type": "function"
    }
  ],
  "bytecode": "0x60806040523480156200001157600080fd5b506040518060400160405280600d81526020017f456e6572677954726164696e67000000000000000000000000000000000000008152506040518060400160405280600281526020017f455400000000000000000000000000000000000000000000000000000000000081525081600090816200008f919062000324565b508060019081620000a1919062000324565b5050506200040b565b600081519050919050565b7f4e487b7100000000000000000000000000000000000000000000000000000000600052604160045260246000fd5b7f4e487b7100000000000000000000000000000000000000000000000000000000600052602260045260246000fd5b600060028204905060018216806200012c57607f821691505b602082108103620001425762000141620000e4565b5b50919050565b60008190508160005260206000209050919050565b60006020601f8301049050919050565b600082821b905092915050565b600060088302620001ac7fffffffffffffffffffffffffffffffffffffffffffffffffffffffffffffffff826200016d565b620001b886836200016d565b95508019841693508086168417925050509392505050565b6000819050919050565b6000819050919050565b600062000205620001ff620001f984620001d0565b620001da565b620001d0565b9050919050565b6000819050919050565b6200022183620001e4565b6200023962000230826200020c565b8484546200017a565b825550505050565b600090565b6200025062000241565b6200025d81848462000216565b505050565b5b8181101562000285576200027960008262000246565b60018101905062000263565b5050565b601f821115620002d4576200029e8162000148565b620002a9846200015d565b81016020851015620002b9578190505b620002d1620002c8856200015d565b83018262000262565b50505b505050565b600082821c905092915050565b6000620002f960001984600802620002d9565b1980831691505092915050565b6000620003148383620002e6565b9150826002028217905092915050565b6200032f82620000aa565b67ffffffffffffffff8111156200034b576200034a620000b5565b5b62000357825462000113565b6200036482828562000289565b600060209050601f8311600181146200039c576000841562000387578287015190505b62000393858262000306565b86555062000403565b601f198416620003ac8662000148565b60005b82811015620003d657848901518255600182019150602085019450602081019050620003af565b86831015620003f65784890151620003f2601f891682620002e6565b8355505b6001600288020188555050505b505050505050565b6125bc806200041b6000396000f3fe608060405234801561001057600080fd5b50600436106101005760003560e01c80636352211e11610097578063a22cb46511610066578063a22cb465146102d6578063b88d4fde146102f2578063c87b56dd1461030e578063e985e9c51461033e57610100565b80636352211e1461023a57806370a082311461026a57806383ccceb31461029a57806395d89b41146102b857610100565b80631c635ded116100d35780631c635ded1461019f5780631e6c598e146101cf57806323b872dd1461020257806342842e0e1461021e57610100565b806301ffc9a71461010557806306fdde0314610135578063081812fc14610153578063095ea7b314610183575b600080fd5b61011f600480360381019061011a91906119b5565b61036e565b60405161012c91906119fd565b60405180910390f35b61013d6103cf565b60405161014a9190611aa8565b60405180910390f35b61016d60048036038101906101689190611b00565b610461565b60405161017a9190611b6e565b60405180910390f35b61019d60048036038101906101989190611bb5565b61047d565b005b6101b960048036038101906101b49190611d2a565b610493565b6040516101c69190611da8565b60405180910390f35b6101e960048036038101906101e49190611b00565b61057f565b6040516101f99493929190611dc3565b60405180910390f35b61021c60048036038101906102179190611e0f565b610657565b005b61023860048036038101906102339190611e0f565b610759565b005b610254600480360381019061024f9190611b00565b610779565b6040516102619190611b6e565b60405180910390f35b610284600480360381019061027f9190611e62565b61078b565b6040516102919190611da8565b60405180910390f35b6102a2610845565b6040516102af9190611da8565b60405180910390f35b6102c061084f565b6040516102cd9190611aa8565b60405180910390f35b6102f060048036038101906102eb9190611ebb565b6108e1565b005b61030c60048036038101906103079190611f9c565b6108f7565b005b61032860048036038101906103239190611b00565b61091c565b6040516103359190611aa8565b60405180910390f35b6103586004803603810190610353919061201f565b610a2f565b60405161036591906119fd565b60405180910390f35b6000634906490660e01b7bffffffffffffffffffffffffffffffffffffffffffffffffffffffff1916827bffffffffffffffffffffffffffffffffffffffffffffffffffffffff191614806103c857506103c782610ac3565b5b9050919050565b6060600080546103de9061208e565b80601f016020809104026020016040519081016040528092919081815260200182805461040a9061208e565b80156104575780601f1061042c57610100808354040283529160200191610457565b820191906000526020600020905b81548152906001019060200180831161043a57829003601f168201915b5050505050905090565b600061046c82610ba5565b5061047682610c2d565b9050919050565b61048f828261048a610c6a565b610c72565b5050565b600080600760008154809291906104a9906120ee565b9190505590506104b93382610c84565b60405180608001604052803373ffffffffffffffffffffffffffffffffffffffff168152602001858152602001868152602001848152506008600083815260200190815260200160002060008201518160000160006101000a81548173ffffffffffffffffffffffffffffffffffffffff021916908373ffffffffffffffffffffffffffffffffffffffff16021790555060208201518160010155604082015181600201908161056991906122e2565b5060608201518160030155905050509392505050565b60086020528060005260406000206000915090508060000160009054906101000a900473ffffffffffffffffffffffffffffffffffffffff16908060010154908060020180546105ce9061208e565b80601f01602080910402602001604051908101604052809291908181526020018280546105fa9061208e565b80156106475780601f1061061c57610100808354040283529160200191610647565b820191906000526020600020905b81548152906001019060200180831161062a57829003601f168201915b5050505050908060030154905084565b600073ffffffffffffffffffffffffffffffffffffffff168273ffffffffffffffffffffffffffffffffffffffff16036106c95760006040517f64a0ae920000000000000000000000000000000000000000000000000000000081526004016106c09190611b6e565b60405180910390fd5b60006106dd83836106d8610c6a565b610d7d565b90508373ffffffffffffffffffffffffffffffffffffffff168173ffffffffffffffffffffffffffffffffffffffff1614610753578382826040517f64283d7b00000000000000000000000000000000000000000000000000000000815260040161074a939291906123b4565b60405180910390fd5b50505050565b610774838383604051806020016040528060008152506108f7565b505050565b600061078482610ba5565b9050919050565b60008073ffffffffffffffffffffffffffffffffffffffff168273ffffffffffffffffffffffffffffffffffffffff16036107fe5760006040517f89c62b640000000000000000000000000000000000000000000000000000000081526004016107f59190611b6e565b60405180910390fd5b600360008373ffffffffffffffffffffffffffffffffffffffff1673ffffffffffffffffffffffffffffffffffffffff168152602001908152602001600020549050919050565b6000600754905090565b60606001805461085e9061208e565b80601f016020809104026020016040519081016040528092919081815260200182805461088a9061208e565b80156108d75780601f106108ac576101008083540402835291602001916108d7565b820191906000526020600020905b8154815290600101906020018083116108ba57829003601f168201915b5050505050905090565b6108f36108ec610c6a565b8383610f97565b5050565b610902848484610657565b61091661090d610c6a565b85858585611106565b50505050565b606061092782610ba5565b5060006006600084815260200190815260200160002080546109489061208e565b80601f01602080910402602001604051908101604052809291908181526020018280546109749061208e565b80156109c15780601f10610996576101008083540402835291602001916109c1565b820191906000526020600020905b8154815290600101906020018083116109a457829003601f168201915b5050505050905060006109d26112b7565b905060008151036109e7578192505050610a2a565b600082511115610a1c578082604051602001610a04929190612427565b60405160208183030381529060405292505050610a2a565b610a25846112ce565b925050505b919050565b6000600560008473ffffffffffffffffffffffffffffffffffffffff1673ffffffffffffffffffffffffffffffffffffffff16815260200190815260200160002060008373ffffffffffffffffffffffffffffffffffffffff1673ffffffffffffffffffffffffffffffffffffffff16815260200190815260200160002060009054906101000a900460ff16905092915050565b60007f80ac58cd000000000000000000000000000000000000000000000000000000007bffffffffffffffffffffffffffffffffffffffffffffffffffffffff1916827bffffffffffffffffffffffffffffffffffffffffffffffffffffffff19161480610b8e57507f5b5e139f000000000000000000000000000000000000000000000000000000007bffffffffffffffffffffffffffffffffffffffffffffffffffffffff1916827bffffffffffffffffffffffffffffffffffffffffffffffffffffffff1916145b80610b9e5750610b9d82611337565b5b9050919050565b600080610bb1836113a1565b9050600073ffffffffffffffffffffffffffffffffffffffff168173ffffffffffffffffffffffffffffffffffffffff1603610c2457826040517f7e273289000000000000000000000000000000000000000000000000000000008152600401610c1b9190611da8565b60405180910390fd5b80915050919050565b60006004600083815260200190815260200160002060009054906101000a900473ffffffffffffffffffffffffffffffffffffffff169050919050565b600033905090565b610c7f83838360016113de565b505050565b600073ffffffffffffffffffffffffffffffffffffffff168273ffffffffffffffffffffffffffffffffffffffff1603610cf65760006040517f64a0ae92000000000000000000000000000000000000000000000000000000008152600401610ced9190611b6e565b60405180910390fd5b6000610d0483836000610d7d565b9050600073ffffffffffffffffffffffffffffffffffffffff168173ffffffffffffffffffffffffffffffffffffffff1614610d785760006040517f73c6ac6e000000000000000000000000000000000000000000000000000000008152600401610d6f9190611b6e565b60405180910390fd5b505050565b600080610d89846113a1565b9050600073ffffffffffffffffffffffffffffffffffffffff168373ffffffffffffffffffffffffffffffffffffffff1614610dcb57610dca8184866115a3565b5b600073ffffffffffffffffffffffffffffffffffffffff168173ffffffffffffffffffffffffffffffffffffffff1614610e5c57610e0d6000856000806113de565b6001600360008373ffffffffffffffffffffffffffffffffffffffff1673ffffffffffffffffffffffffffffffffffffffff168152602001908152602001600020600082825403925050819055505b600073ffffffffffffffffffffffffffffffffffffffff168573ffffffffffffffffffffffffffffffffffffffff1614610edf576001600360008773ffffffffffffffffffffffffffffffffffffffff1673ffffffffffffffffffffffffffffffffffffffff168152602001908152602001600020600082825401925050819055505b846002600086815260200190815260200160002060006101000a81548173ffffffffffffffffffffffffffffffffffffffff021916908373ffffffffffffffffffffffffffffffffffffffff160217905550838573ffffffffffffffffffffffffffffffffffffffff168273ffffffffffffffffffffffffffffffffffffffff167fddf252ad1be2c89b69c2b068fc378daa952ba7f163c4a11628f55a4df523b3ef60405160405180910390a4809150509392505050565b600073ffffffffffffffffffffffffffffffffffffffff168273ffffffffffffffffffffffffffffffffffffffff160361100857816040517f5b08ba18000000000000000000000000000000000000000000000000000000008152600401610fff9190611b6e565b60405180910390fd5b80600560008573ffffffffffffffffffffffffffffffffffffffff1673ffffffffffffffffffffffffffffffffffffffff16815260200190815260200160002060008473ffffffffffffffffffffffffffffffffffffffff1673ffffffffffffffffffffffffffffffffffffffff16815260200190815260200160002060006101000a81548160ff0219169083151502179055508173ffffffffffffffffffffffffffffffffffffffff168373ffffffffffffffffffffffffffffffffffffffff167f17307eab39ab6107e8899845ad3d59bd9653f200f220920489ca2b5937696c31836040516110f991906119fd565b60405180910390a3505050565b60008373ffffffffffffffffffffffffffffffffffffffff163b11156112b0578273ffffffffffffffffffffffffffffffffffffffff1663150b7a02868685856040518563ffffffff1660e01b815260040161116594939291906124a0565b6020604051808303816000875af19250505080156111a157506040513d601f19601f8201168201806040525081019061119e9190612501565b60015b611225573d80600081146111d1576040519150601f19603f3d011682016040523d82523d6000602084013e6111d6565b606091505b50600081510361121d57836040517f64a0ae920000000000000000000000000000000000000000000000000000000081526004016112149190611b6e565b60405180910390fd5b805181602001fd5b63150b7a0260e01b7bffffffffffffffffffffffffffffffffffffffffffffffffffffffff1916817bffffffffffffffffffffffffffffffffffffffffffffffffffffffff1916146112ae57836040517f64a0ae920000000000000000000000000000000000000000000000000000000081526004016112a59190611b6e565b60405180910390fd5b505b5050505050565b606060405180602001604052806000815250905090565b60606112d982610ba5565b5060006112e46112b7565b90506000815111611304576040518060200160405280600081525061132f565b8061130e84611667565b60405160200161131f929190612427565b6040516020818303038152906040525b915050919050565b60007f01ffc9a7000000000000000000000000000000000000000000000000000000007bffffffffffffffffffffffffffffffffffffffffffffffffffffffff1916827bffffffffffffffffffffffffffffffffffffffffffffffffffffffff1916149050919050565b60006002600083815260200190815260200160002060009054906101000a900473ffffffffffffffffffffffffffffffffffffffff169050919050565b80806114175750600073ffffffffffffffffffffffffffffffffffffffff168273ffffffffffffffffffffffffffffffffffffffff1614155b1561154b57600061142784610ba5565b9050600073ffffffffffffffffffffffffffffffffffffffff168373ffffffffffffffffffffffffffffffffffffffff161415801561149257508273ffffffffffffffffffffffffffffffffffffffff168173ffffffffffffffffffffffffffffffffffffffff1614155b80156114a557506114a38184610a2f565b155b156114e757826040517fa9fbf51f0000000000000000000000000000000000000000000000000000000081526004016114de9190611b6e565b60405180910390fd5b811561154957838573ffffffffffffffffffffffffffffffffffffffff168273ffffffffffffffffffffffffffffffffffffffff167f8c5be1e5ebec7d5bd14f71427d1e84f3dd0314c0f7b2291e5b200ac8c7c3b92560405160405180910390a45b505b836004600085815260200190815260200160002060006101000a81548173ffffffffffffffffffffffffffffffffffffffff021916908373ffffffffffffffffffffffffffffffffffffffff16021790555050505050565b6115ae838383611735565b61166257600073ffffffffffffffffffffffffffffffffffffffff168373ffffffffffffffffffffffffffffffffffffffff160361162357806040517f7e27328900000000000000000000000000000000000000000000000000000000815260040161161a9190611da8565b60405180910390fd5b81816040517f177e802f00000000000000000000000000000000000000000000000000000000815260040161165992919061252e565b60405180910390fd5b505050565b606060006001611676846117f6565b01905060008167ffffffffffffffff81111561169557611694611bff565b5b6040519080825280601f01601f1916602001820160405280156116c75781602001600182028036833780820191505090505b509050600082602001820190505b60011561172a578080600190039150507f3031323334353637383961626364656600000000000000000000000000000000600a86061a8153600a858161171e5761171d612557565b5b049450600085036116d5575b819350505050919050565b60008073ffffffffffffffffffffffffffffffffffffffff168373ffffffffffffffffffffffffffffffffffffffff16141580156117ed57508273ffffffffffffffffffffffffffffffffffffffff168473ffffffffffffffffffffffffffffffffffffffff1614806117ae57506117ad8484610a2f565b5b806117ec57508273ffffffffffffffffffffffffffffffffffffffff166117d483610c2d565b73ffffffffffffffffffffffffffffffffffffffff16145b5b90509392505050565b600080600090507a184f03e93ff9f4daa797ed6e38ed64bf6a1f0100000000000000008310611854577a184f03e93ff9f4daa797ed6e38ed64bf6a1f010000000000000000838161184a57611849612557565b5b0492506040810190505b6d04ee2d6d415b85acef81000000008310611891576d04ee2d6d415b85acef8100000000838161188757611886612557565b5b0492506020810190505b662386f26fc1000083106118c057662386f26fc1000083816118b6576118b5612557565b5b0492506010810190505b6305f5e10083106118e9576305f5e10083816118df576118de612557565b5b0492506008810190505b612710831061190e57612710838161190457611903612557565b5b0492506004810190505b60648310611931576064838161192757611926612557565b5b0492506002810190505b600a8310611940576001810190505b80915050919050565b6000604051905090565b600080fd5b600080fd5b60007fffffffff0000000000000000000000000000000000000000000000000000000082169050919050565b6119928161195d565b811461199d57600080fd5b50565b6000813590506119af81611989565b92915050565b6000602082840312156119cb576119ca611953565b5b60006119d9848285016119a0565b91505092915050565b60008115159050919050565b6119f7816119e2565b82525050565b6000602082019050611a1260008301846119ee565b92915050565b600081519050919050565b600082825260208201905092915050565b60005b83811015611a52578082015181840152602081019050611a37565b60008484015250505050565b6000601f19601f8301169050919050565b6000611a7a82611a18565b611a848185611a23565b9350611a94818560208601611a34565b611a9d81611a5e565b840191505092915050565b60006020820190508181036000830152611ac28184611a6f565b905092915050565b6000819050919050565b611add81611aca565b8114611ae857600080fd5b50565b600081359050611afa81611ad4565b92915050565b600060208284031215611b1657611b15611953565b5b6000611b2484828501611aeb565b91505092915050565b600073ffffffffffffffffffffffffffffffffffffffff82169050919050565b6000611b5882611b2d565b9050919050565b611b6881611b4d565b82525050565b6000602082019050611b836000830184611b5f565b92915050565b611b9281611b4d565b8114611b9d57600080fd5b50565b600081359050611baf81611b89565b92915050565b60008060408385031215611bcc57611bcb611953565b5b6000611bda85828601611ba0565b9250506020611beb85828601611aeb565b9150509250929050565b600080fd5b600080fd5b7f4e487b7100000000000000000000000000000000000000000000000000000000600052604160045260246000fd5b611c3782611a5e565b810181811067ffffffffffffffff82111715611c5657611c55611bff565b5b80604052505050565b6000611c69611949565b9050611c758282611c2e565b919050565b600067ffffffffffffffff821115611c9557611c94611bff565b5b611c9e82611a5e565b9050602081019050919050565b82818337600083830152505050565b6000611ccd611cc884611c7a565b611c5f565b905082815260208101848484011115611ce957611ce8611bfa565b5b611cf4848285611cab565b509392505050565b600082601f830112611d1157611d10611bf5565b5b8135611d21848260208601611cba565b91505092915050565b600080600060608486031215611d4357611d42611953565b5b600084013567ffffffffffffffff811115611d6157611d60611958565b5b611d6d86828701611cfc565b9350506020611d7e86828701611aeb565b9250506040611d8f86828701611aeb565b9150509250925092565b611da281611aca565b82525050565b6000602082019050611dbd6000830184611d99565b92915050565b6000608082019050611dd86000830187611b5f565b611de56020830186611d99565b8181036040830152611df78185611a6f565b9050611e066060830184611d99565b95945050505050565b600080600060608486031215611e2857611e27611953565b5b6000611e3686828701611ba0565b9350506020611e4786828701611ba0565b9250506040611e5886828701611aeb565b9150509250925092565b600060208284031215611e7857611e77611953565b5b6000611e8684828501611ba0565b91505092915050565b611e98816119e2565b8114611ea357600080fd5b50565b600081359050611eb581611e8f565b92915050565b60008060408385031215611ed257611ed1611953565b5b6000611ee085828601611ba0565b9250506020611ef185828601611ea6565b9150509250929050565b600067ffffffffffffffff821115611f1657611f15611bff565b5b611f1f82611a5e565b9050602081019050919050565b6000611f3f611f3a84611efb565b611c5f565b905082815260208101848484011115611f5b57611f5a611bfa565b5b611f66848285611cab565b509392505050565b600082601f830112611f8357611f82611bf5565b5b8135611f93848260208601611f2c565b91505092915050565b60008060008060808587031215611fb657611fb5611953565b5b6000611fc487828801611ba0565b9450506020611fd587828801611ba0565b9350506040611fe687828801611aeb565b925050606085013567ffffffffffffffff81111561200757612006611958565b5b61201387828801611f6e565b91505092959194509250565b6000806040838503121561203657612035611953565b5b600061204485828601611ba0565b925050602061205585828601611ba0565b9150509250929050565b7f4e487b7100000000000000000000000000000000000000000000000000000000600052602260045260246000fd5b600060028204905060018216806120a657607f821691505b6020821081036120b9576120b861205f565b5b50919050565b7f4e487b7100000000000000000000000000000000000000000000000000000000600052601160045260246000fd5b60006120f982611aca565b91507fffffffffffffffffffffffffffffffffffffffffffffffffffffffffffffffff820361212b5761212a6120bf565b5b600182019050919050565b60008190508160005260206000209050919050565b60006020601f8301049050919050565b600082821b905092915050565b6000600883026121987fffffffffffffffffffffffffffffffffffffffffffffffffffffffffffffffff8261215b565b6121a2868361215b565b95508019841693508086168417925050509392505050565b6000819050919050565b60006121df6121da6121d584611aca565b6121ba565b611aca565b9050919050565b6000819050919050565b6121f9836121c4565b61220d612205826121e6565b848454612168565b825550505050565b600090565b612222612215565b61222d8184846121f0565b505050565b5b818110156122515761224660008261221a565b600181019050612233565b5050565b601f8211156122965761226781612136565b6122708461214b565b8101602085101561227f578190505b61229361228b8561214b565b830182612232565b50505b505050565b600082821c905092915050565b60006122b96000198460080261229b565b1980831691505092915050565b60006122d283836122a8565b9150826002028217905092915050565b6122eb82611a18565b67ffffffffffffffff81111561230457612303611bff565b5b61230e825461208e565b612319828285612255565b600060209050601f83116001811461234c576000841561233a578287015190505b61234485826122c6565b8655506123ac565b601f19841661235a86612136565b60005b828110156123825784890151825560018201915060208501945060208101905061235d565b8683101561239f578489015161239b601f8916826122a8565b8355505b6001600288020188555050505b505050505050565b60006060820190506123c96000830186611b5f565b6123d66020830185611d99565b6123e36040830184611b5f565b949350505050565b600081905092915050565b600061240182611a18565b61240b81856123eb565b935061241b818560208601611a34565b80840191505092915050565b600061243382856123f6565b915061243f82846123f6565b91508190509392505050565b600081519050919050565b600082825260208201905092915050565b60006124728261244b565b61247c8185612456565b935061248c818560208601611a34565b61249581611a5e565b840191505092915050565b60006080820190506124b56000830187611b5f565b6124c26020830186611b5f565b6124cf6040830185611d99565b81810360608301526124e18184612467565b905095945050505050565b6000815190506124fb81611989565b92915050565b60006020828403121561251757612516611953565b5b6000612525848285016124ec565b91505092915050565b60006040820190506125436000830185611b5f565b6125506020830184611d99565b9392505050565b7f4e487b7100000000000000000000000000000000000000000000000000000000600052601260045260246000fdfea26469706673582212200332b0d7c91c3aa578146d64a468a471753ef31bf68dbc7e8d6794ef29e569c364736f6c63430008140033",
  "linkReferences": {},
  "deployedLinkReferences": {}
}